{
  "_format": "hh-sol-artifact-1",
  "contractName": "Dwitter",
  "sourceName": "contracts/Dwitter.sol",
  "abi": [
    {
      "inputs": [
        {
          "internalType": "uint256",
          "name": "",
          "type": "uint256"
        }
      ],
      "name": "dweets",
      "outputs": [
        {
          "components": [
            {
              "internalType": "address",
              "name": "wallet",
              "type": "address"
            },
            {
              "internalType": "string",
              "name": "name",
              "type": "string"
            },
            {
              "internalType": "string",
              "name": "username",
              "type": "string"
            },
            {
              "internalType": "string",
              "name": "bio",
              "type": "string"
            },
            {
              "internalType": "string",
              "name": "avatar",
              "type": "string"
            }
          ],
          "internalType": "struct Dwitter.User",
          "name": "author",
          "type": "tuple"
        },
        {
          "internalType": "string",
          "name": "id",
          "type": "string"
        },
        {
          "internalType": "string",
          "name": "content",
          "type": "string"
        },
        {
          "internalType": "uint256",
          "name": "timestamp",
          "type": "uint256"
        }
      ],
      "stateMutability": "view",
      "type": "function"
    },
    {
      "inputs": [],
      "name": "getDweets",
      "outputs": [
        {
          "components": [
            {
              "components": [
                {
                  "internalType": "address",
                  "name": "wallet",
                  "type": "address"
                },
                {
                  "internalType": "string",
                  "name": "name",
                  "type": "string"
                },
                {
                  "internalType": "string",
                  "name": "username",
                  "type": "string"
                },
                {
                  "internalType": "string",
                  "name": "bio",
                  "type": "string"
                },
                {
                  "internalType": "string",
                  "name": "avatar",
                  "type": "string"
                }
              ],
              "internalType": "struct Dwitter.User",
              "name": "author",
              "type": "tuple"
            },
            {
              "internalType": "string",
              "name": "id",
              "type": "string"
            },
            {
              "internalType": "string",
              "name": "content",
              "type": "string"
            },
            {
              "internalType": "uint256",
              "name": "timestamp",
              "type": "uint256"
            },
            {
              "internalType": "string[]",
              "name": "images",
              "type": "string[]"
            },
            {
              "internalType": "address[]",
              "name": "likes",
              "type": "address[]"
            }
          ],
          "internalType": "struct Dwitter.Dweet[]",
          "name": "",
          "type": "tuple[]"
        }
      ],
      "stateMutability": "view",
      "type": "function"
    },
    {
      "inputs": [
        {
          "internalType": "address",
          "name": "_wallet",
          "type": "address"
        }
      ],
      "name": "getUser",
      "outputs": [
        {
          "components": [
            {
              "internalType": "address",
              "name": "wallet",
              "type": "address"
            },
            {
              "internalType": "string",
              "name": "name",
              "type": "string"
            },
            {
              "internalType": "string",
              "name": "username",
              "type": "string"
            },
            {
              "internalType": "string",
              "name": "bio",
              "type": "string"
            },
            {
              "internalType": "string",
              "name": "avatar",
              "type": "string"
            }
          ],
          "internalType": "struct Dwitter.User",
          "name": "",
          "type": "tuple"
        }
      ],
      "stateMutability": "view",
      "type": "function"
    },
    {
      "inputs": [
        {
          "internalType": "string",
          "name": "_id",
          "type": "string"
        }
      ],
      "name": "likeDweet",
      "outputs": [],
      "stateMutability": "nonpayable",
      "type": "function"
    },
    {
      "inputs": [
        {
          "internalType": "string",
          "name": "_content",
          "type": "string"
        },
        {
          "internalType": "string",
          "name": "_id",
          "type": "string"
        },
        {
          "internalType": "string[]",
          "name": "_images",
          "type": "string[]"
        }
      ],
      "name": "postDweet",
      "outputs": [],
      "stateMutability": "nonpayable",
      "type": "function"
    },
    {
      "inputs": [
        {
          "internalType": "string",
          "name": "_username",
          "type": "string"
        },
        {
          "internalType": "string",
          "name": "_name",
          "type": "string"
        },
        {
          "internalType": "string",
          "name": "_bio",
          "type": "string"
        },
        {
          "internalType": "string",
          "name": "_avatar",
          "type": "string"
        }
      ],
      "name": "signup",
      "outputs": [],
      "stateMutability": "nonpayable",
      "type": "function"
    },
    {
      "inputs": [
        {
          "internalType": "address",
          "name": "",
          "type": "address"
        }
      ],
      "name": "usernames",
      "outputs": [
        {
          "internalType": "string",
          "name": "",
          "type": "string"
        }
      ],
      "stateMutability": "view",
      "type": "function"
    },
    {
      "inputs": [
        {
          "internalType": "string",
          "name": "",
          "type": "string"
        }
      ],
      "name": "users",
      "outputs": [
        {
          "internalType": "address",
          "name": "wallet",
          "type": "address"
        },
        {
          "internalType": "string",
          "name": "name",
          "type": "string"
        },
        {
          "internalType": "string",
          "name": "username",
          "type": "string"
        },
        {
          "internalType": "string",
          "name": "bio",
          "type": "string"
        },
        {
          "internalType": "string",
          "name": "avatar",
          "type": "string"
        }
      ],
      "stateMutability": "view",
      "type": "function"
    }
  ],
  "bytecode": "0x608060405234801561001057600080fd5b506133ac806100206000396000f3fe608060405234801561001057600080fd5b50600436106100885760003560e01c8063c01307831161005b578063c013078314610140578063d7798e5b1461015c578063ee91877c1461017a578063fcf58fa5146101aa57610088565b806337dc190c1461008d578063689e1c03146100c05780636f77926b146100f4578063bed2fcd414610124575b600080fd5b6100a760048036038101906100a291906125f9565b6101c6565b6040516100b79493929190612d9b565b60405180910390f35b6100da60048036038101906100d5919061245e565b6105be565b6040516100eb959493929190612be6565b60405180910390f35b61010e60048036038101906101099190612435565b61084a565b60405161011b9190612d79565b60405180910390f35b61013e6004803603810190610139919061249f565b610b5d565b005b61015a6004803603810190610155919061245e565b611194565b005b6101646117c8565b6040516101719190612c55565b60405180910390f35b610194600480360381019061018f9190612435565b611d6e565b6040516101a19190612c77565b60405180910390f35b6101c460048036038101906101bf9190612536565b611e0e565b005b600281815481106101d657600080fd5b90600052602060002090600a0201600091509050806000016040518060a00160405290816000820160009054906101000a900473ffffffffffffffffffffffffffffffffffffffff1673ffffffffffffffffffffffffffffffffffffffff1673ffffffffffffffffffffffffffffffffffffffff16815260200160018201805461025f90613021565b80601f016020809104026020016040519081016040528092919081815260200182805461028b90613021565b80156102d85780601f106102ad576101008083540402835291602001916102d8565b820191906000526020600020905b8154815290600101906020018083116102bb57829003601f168201915b505050505081526020016002820180546102f190613021565b80601f016020809104026020016040519081016040528092919081815260200182805461031d90613021565b801561036a5780601f1061033f5761010080835404028352916020019161036a565b820191906000526020600020905b81548152906001019060200180831161034d57829003601f168201915b5050505050815260200160038201805461038390613021565b80601f01602080910402602001604051908101604052809291908181526020018280546103af90613021565b80156103fc5780601f106103d1576101008083540402835291602001916103fc565b820191906000526020600020905b8154815290600101906020018083116103df57829003601f168201915b5050505050815260200160048201805461041590613021565b80601f016020809104026020016040519081016040528092919081815260200182805461044190613021565b801561048e5780601f106104635761010080835404028352916020019161048e565b820191906000526020600020905b81548152906001019060200180831161047157829003601f168201915b505050505081525050908060050180546104a790613021565b80601f01602080910402602001604051908101604052809291908181526020018280546104d390613021565b80156105205780601f106104f557610100808354040283529160200191610520565b820191906000526020600020905b81548152906001019060200180831161050357829003601f168201915b50505050509080600601805461053590613021565b80601f016020809104026020016040519081016040528092919081815260200182805461056190613021565b80156105ae5780601f10610583576101008083540402835291602001916105ae565b820191906000526020600020905b81548152906001019060200180831161059157829003601f168201915b5050505050908060070154905084565b6001818051602081018201805184825260208301602085012081835280955050505050506000915090508060000160009054906101000a900473ffffffffffffffffffffffffffffffffffffffff169080600101805461061d90613021565b80601f016020809104026020016040519081016040528092919081815260200182805461064990613021565b80156106965780601f1061066b57610100808354040283529160200191610696565b820191906000526020600020905b81548152906001019060200180831161067957829003601f168201915b5050505050908060020180546106ab90613021565b80601f01602080910402602001604051908101604052809291908181526020018280546106d790613021565b80156107245780601f106106f957610100808354040283529160200191610724565b820191906000526020600020905b81548152906001019060200180831161070757829003601f168201915b50505050509080600301805461073990613021565b80601f016020809104026020016040519081016040528092919081815260200182805461076590613021565b80156107b25780601f10610787576101008083540402835291602001916107b2565b820191906000526020600020905b81548152906001019060200180831161079557829003601f168201915b5050505050908060040180546107c790613021565b80601f01602080910402602001604051908101604052809291908181526020018280546107f390613021565b80156108405780601f1061081557610100808354040283529160200191610840565b820191906000526020600020905b81548152906001019060200180831161082357829003601f168201915b5050505050905085565b6108526120bd565b60016000808473ffffffffffffffffffffffffffffffffffffffff1673ffffffffffffffffffffffffffffffffffffffff16815260200190815260200160002060405161089f9190612bcf565b90815260200160405180910390206040518060a00160405290816000820160009054906101000a900473ffffffffffffffffffffffffffffffffffffffff1673ffffffffffffffffffffffffffffffffffffffff1673ffffffffffffffffffffffffffffffffffffffff16815260200160018201805461091e90613021565b80601f016020809104026020016040519081016040528092919081815260200182805461094a90613021565b80156109975780601f1061096c57610100808354040283529160200191610997565b820191906000526020600020905b81548152906001019060200180831161097a57829003601f168201915b505050505081526020016002820180546109b090613021565b80601f01602080910402602001604051908101604052809291908181526020018280546109dc90613021565b8015610a295780601f106109fe57610100808354040283529160200191610a29565b820191906000526020600020905b815481529060010190602001808311610a0c57829003601f168201915b50505050508152602001600382018054610a4290613021565b80601f0160208091040260200160405190810160405280929190818152602001828054610a6e90613021565b8015610abb5780601f10610a9057610100808354040283529160200191610abb565b820191906000526020600020905b815481529060010190602001808311610a9e57829003601f168201915b50505050508152602001600482018054610ad490613021565b80601f0160208091040260200160405190810160405280929190818152602001828054610b0090613021565b8015610b4d5780601f10610b2257610100808354040283529160200191610b4d565b820191906000526020600020905b815481529060010190602001808311610b3057829003601f168201915b5050505050815250509050919050565b60008060003373ffffffffffffffffffffffffffffffffffffffff1673ffffffffffffffffffffffffffffffffffffffff1681526020019081526020016000208054610ba890613021565b905011610bea576040517f08c379a0000000000000000000000000000000000000000000000000000000008152600401610be190612cd9565b60405180910390fd5b6000835111610c2e576040517f08c379a0000000000000000000000000000000000000000000000000000000008152600401610c2590612d19565b60405180910390fd5b608c83511115610c73576040517f08c379a0000000000000000000000000000000000000000000000000000000008152600401610c6a90612c99565b60405180910390fd5b600060016000803373ffffffffffffffffffffffffffffffffffffffff1673ffffffffffffffffffffffffffffffffffffffff168152602001908152602001600020604051610cc29190612bcf565b90815260200160405180910390206040518060a00160405290816000820160009054906101000a900473ffffffffffffffffffffffffffffffffffffffff1673ffffffffffffffffffffffffffffffffffffffff1673ffffffffffffffffffffffffffffffffffffffff168152602001600182018054610d4190613021565b80601f0160208091040260200160405190810160405280929190818152602001828054610d6d90613021565b8015610dba5780601f10610d8f57610100808354040283529160200191610dba565b820191906000526020600020905b815481529060010190602001808311610d9d57829003601f168201915b50505050508152602001600282018054610dd390613021565b80601f0160208091040260200160405190810160405280929190818152602001828054610dff90613021565b8015610e4c5780601f10610e2157610100808354040283529160200191610e4c565b820191906000526020600020905b815481529060010190602001808311610e2f57829003601f168201915b50505050508152602001600382018054610e6590613021565b80601f0160208091040260200160405190810160405280929190818152602001828054610e9190613021565b8015610ede5780601f10610eb357610100808354040283529160200191610ede565b820191906000526020600020905b815481529060010190602001808311610ec157829003601f168201915b50505050508152602001600482018054610ef790613021565b80601f0160208091040260200160405190810160405280929190818152602001828054610f2390613021565b8015610f705780601f10610f4557610100808354040283529160200191610f70565b820191906000526020600020905b815481529060010190602001808311610f5357829003601f168201915b505050505081525050905060006040518060c00160405280838152602001858152602001868152602001428152602001848152602001600067ffffffffffffffff811115610fe7577f4e487b7100000000000000000000000000000000000000000000000000000000600052604160045260246000fd5b6040519080825280602002602001820160405280156110155781602001602082028036833780820191505090505b50815250905060028190806001815401808255809150506001900390600052602060002090600a020160009091909190915060008201518160000160008201518160000160006101000a81548173ffffffffffffffffffffffffffffffffffffffff021916908373ffffffffffffffffffffffffffffffffffffffff16021790555060208201518160010190805190602001906110b3929190612102565b5060408201518160020190805190602001906110d0929190612102565b5060608201518160030190805190602001906110ed929190612102565b50608082015181600401908051906020019061110a929190612102565b5050506020820151816005019080519060200190611129929190612102565b506040820151816006019080519060200190611146929190612102565b5060608201518160070155608082015181600801908051906020019061116d929190612188565b5060a082015181600901908051906020019061118a9291906121e8565b5050505050505050565b60008060003373ffffffffffffffffffffffffffffffffffffffff1673ffffffffffffffffffffffffffffffffffffffff16815260200190815260200160002080546111df90613021565b905011611221576040517f08c379a000000000000000000000000000000000000000000000000000000000815260040161121890612d59565b60405180910390fd5b6000815111611265576040517f08c379a000000000000000000000000000000000000000000000000000000000815260040161125c90612cb9565b60405180910390fd5b60006001905060005b6002805490508110156117c2578260405160200161128c9190612bb8565b60405160208183030381529060405280519060200120600282815481106112dc577f4e487b7100000000000000000000000000000000000000000000000000000000600052603260045260246000fd5b90600052602060002090600a02016005016040516020016112fd9190612bcf565b6040516020818303038152906040528051906020012014156117af5760005b60028281548110611356577f4e487b7100000000000000000000000000000000000000000000000000000000600052603260045260246000fd5b90600052602060002090600a0201600901805490508110156116f4573373ffffffffffffffffffffffffffffffffffffffff16600283815481106113c3577f4e487b7100000000000000000000000000000000000000000000000000000000600052603260045260246000fd5b90600052602060002090600a0201600901828154811061140c577f4e487b7100000000000000000000000000000000000000000000000000000000600052603260045260246000fd5b9060005260206000200160009054906101000a900473ffffffffffffffffffffffffffffffffffffffff1673ffffffffffffffffffffffffffffffffffffffff1614156116e1576002828154811061148d577f4e487b7100000000000000000000000000000000000000000000000000000000600052603260045260246000fd5b90600052602060002090600a02016009016001600284815481106114da577f4e487b7100000000000000000000000000000000000000000000000000000000600052603260045260246000fd5b90600052602060002090600a0201600901805490506114f99190612f6f565b81548110611530577f4e487b7100000000000000000000000000000000000000000000000000000000600052603260045260246000fd5b9060005260206000200160009054906101000a900473ffffffffffffffffffffffffffffffffffffffff1660028381548110611595577f4e487b7100000000000000000000000000000000000000000000000000000000600052603260045260246000fd5b90600052602060002090600a020160090182815481106115de577f4e487b7100000000000000000000000000000000000000000000000000000000600052603260045260246000fd5b9060005260206000200160006101000a81548173ffffffffffffffffffffffffffffffffffffffff021916908373ffffffffffffffffffffffffffffffffffffffff16021790555060028281548110611660577f4e487b7100000000000000000000000000000000000000000000000000000000600052603260045260246000fd5b90600052602060002090600a02016009018054806116a7577f4e487b7100000000000000000000000000000000000000000000000000000000600052603160045260246000fd5b6001900381819060005260206000200160006101000a81549073ffffffffffffffffffffffffffffffffffffffff02191690559055600092505b80806116ec90613084565b91505061131c565b5081156117a85760028181548110611735577f4e487b7100000000000000000000000000000000000000000000000000000000600052603260045260246000fd5b90600052602060002090600a0201600901339080600181540180825580915050600190039060005260206000200160009091909190916101000a81548173ffffffffffffffffffffffffffffffffffffffff021916908373ffffffffffffffffffffffffffffffffffffffff1602179055505b50506117c5565b80806117ba90613084565b91505061126e565b50505b50565b60606002805480602002602001604051908101604052809291908181526020016000905b82821015611d6557838290600052602060002090600a02016040518060c0016040529081600082016040518060a00160405290816000820160009054906101000a900473ffffffffffffffffffffffffffffffffffffffff1673ffffffffffffffffffffffffffffffffffffffff1673ffffffffffffffffffffffffffffffffffffffff16815260200160018201805461188590613021565b80601f01602080910402602001604051908101604052809291908181526020018280546118b190613021565b80156118fe5780601f106118d3576101008083540402835291602001916118fe565b820191906000526020600020905b8154815290600101906020018083116118e157829003601f168201915b5050505050815260200160028201805461191790613021565b80601f016020809104026020016040519081016040528092919081815260200182805461194390613021565b80156119905780601f1061196557610100808354040283529160200191611990565b820191906000526020600020905b81548152906001019060200180831161197357829003601f168201915b505050505081526020016003820180546119a990613021565b80601f01602080910402602001604051908101604052809291908181526020018280546119d590613021565b8015611a225780601f106119f757610100808354040283529160200191611a22565b820191906000526020600020905b815481529060010190602001808311611a0557829003601f168201915b50505050508152602001600482018054611a3b90613021565b80601f0160208091040260200160405190810160405280929190818152602001828054611a6790613021565b8015611ab45780601f10611a8957610100808354040283529160200191611ab4565b820191906000526020600020905b815481529060010190602001808311611a9757829003601f168201915b5050505050815250508152602001600582018054611ad190613021565b80601f0160208091040260200160405190810160405280929190818152602001828054611afd90613021565b8015611b4a5780601f10611b1f57610100808354040283529160200191611b4a565b820191906000526020600020905b815481529060010190602001808311611b2d57829003601f168201915b50505050508152602001600682018054611b6390613021565b80601f0160208091040260200160405190810160405280929190818152602001828054611b8f90613021565b8015611bdc5780601f10611bb157610100808354040283529160200191611bdc565b820191906000526020600020905b815481529060010190602001808311611bbf57829003601f168201915b505050505081526020016007820154815260200160088201805480602002602001604051908101604052809291908181526020016000905b82821015611cc0578382906000526020600020018054611c3390613021565b80601f0160208091040260200160405190810160405280929190818152602001828054611c5f90613021565b8015611cac5780601f10611c8157610100808354040283529160200191611cac565b820191906000526020600020905b815481529060010190602001808311611c8f57829003601f168201915b505050505081526020019060010190611c14565b50505050815260200160098201805480602002602001604051908101604052809291908181526020018280548015611d4d57602002820191906000526020600020905b8160009054906101000a900473ffffffffffffffffffffffffffffffffffffffff1673ffffffffffffffffffffffffffffffffffffffff1681526020019060010190808311611d03575b505050505081525050815260200190600101906117ec565b50505050905090565b60006020528060005260406000206000915090508054611d8d90613021565b80601f0160208091040260200160405190810160405280929190818152602001828054611db990613021565b8015611e065780601f10611ddb57610100808354040283529160200191611e06565b820191906000526020600020905b815481529060010190602001808311611de957829003601f168201915b505050505081565b60008060003373ffffffffffffffffffffffffffffffffffffffff1673ffffffffffffffffffffffffffffffffffffffff1681526020019081526020016000208054611e5990613021565b905014611e9b576040517f08c379a0000000000000000000000000000000000000000000000000000000008152600401611e9290612cf9565b60405180910390fd5b600073ffffffffffffffffffffffffffffffffffffffff16600185604051611ec39190612bb8565b908152602001604051809103902060000160009054906101000a900473ffffffffffffffffffffffffffffffffffffffff1673ffffffffffffffffffffffffffffffffffffffff1614611f4b576040517f08c379a0000000000000000000000000000000000000000000000000000000008152600401611f4290612d39565b60405180910390fd5b6040518060a001604052803373ffffffffffffffffffffffffffffffffffffffff16815260200184815260200185815260200183815260200182815250600185604051611f989190612bb8565b908152602001604051809103902060008201518160000160006101000a81548173ffffffffffffffffffffffffffffffffffffffff021916908373ffffffffffffffffffffffffffffffffffffffff1602179055506020820151816001019080519060200190612009929190612102565b506040820151816002019080519060200190612026929190612102565b506060820151816003019080519060200190612043929190612102565b506080820151816004019080519060200190612060929190612102565b50905050836000803373ffffffffffffffffffffffffffffffffffffffff1673ffffffffffffffffffffffffffffffffffffffff16815260200190815260200160002090805190602001906120b6929190612102565b5050505050565b6040518060a00160405280600073ffffffffffffffffffffffffffffffffffffffff168152602001606081526020016060815260200160608152602001606081525090565b82805461210e90613021565b90600052602060002090601f0160209004810192826121305760008555612177565b82601f1061214957805160ff1916838001178555612177565b82800160010185558215612177579182015b8281111561217657825182559160200191906001019061215b565b5b5090506121849190612272565b5090565b8280548282559060005260206000209081019282156121d7579160200282015b828111156121d65782518290805190602001906121c6929190612102565b50916020019190600101906121a8565b5b5090506121e4919061228f565b5090565b828054828255906000526020600020908101928215612261579160200282015b828111156122605782518260006101000a81548173ffffffffffffffffffffffffffffffffffffffff021916908373ffffffffffffffffffffffffffffffffffffffff16021790555091602001919060010190612208565b5b50905061226e9190612272565b5090565b5b8082111561228b576000816000905550600101612273565b5090565b5b808211156122af57600081816122a691906122b3565b50600101612290565b5090565b5080546122bf90613021565b6000825580601f106122d157506122f0565b601f0160209004906000526020600020908101906122ef9190612272565b5b50565b600061230661230184612e1a565b612df5565b9050808382526020820190508285602086028201111561232557600080fd5b60005b8581101561236f57813567ffffffffffffffff81111561234757600080fd5b80860161235489826123f6565b85526020850194506020840193505050600181019050612328565b5050509392505050565b600061238c61238784612e46565b612df5565b9050828152602081018484840111156123a457600080fd5b6123af848285612fdf565b509392505050565b6000813590506123c681613348565b92915050565b600082601f8301126123dd57600080fd5b81356123ed8482602086016122f3565b91505092915050565b600082601f83011261240757600080fd5b8135612417848260208601612379565b91505092915050565b60008135905061242f8161335f565b92915050565b60006020828403121561244757600080fd5b6000612455848285016123b7565b91505092915050565b60006020828403121561247057600080fd5b600082013567ffffffffffffffff81111561248a57600080fd5b612496848285016123f6565b91505092915050565b6000806000606084860312156124b457600080fd5b600084013567ffffffffffffffff8111156124ce57600080fd5b6124da868287016123f6565b935050602084013567ffffffffffffffff8111156124f757600080fd5b612503868287016123f6565b925050604084013567ffffffffffffffff81111561252057600080fd5b61252c868287016123cc565b9150509250925092565b6000806000806080858703121561254c57600080fd5b600085013567ffffffffffffffff81111561256657600080fd5b612572878288016123f6565b945050602085013567ffffffffffffffff81111561258f57600080fd5b61259b878288016123f6565b935050604085013567ffffffffffffffff8111156125b857600080fd5b6125c4878288016123f6565b925050606085013567ffffffffffffffff8111156125e157600080fd5b6125ed878288016123f6565b91505092959194509250565b60006020828403121561260b57600080fd5b600061261984828501612420565b91505092915050565b600061262e8383612662565b60208301905092915050565b600061264683836127c8565b905092915050565b600061265a83836129df565b905092915050565b61266b81612fa3565b82525050565b61267a81612fa3565b82525050565b600061268b82612ebc565b6126958185612f0f565b93506126a083612e77565b8060005b838110156126d15781516126b88882612622565b97506126c383612ee8565b9250506001810190506126a4565b5085935050505092915050565b60006126e982612ec7565b6126f38185612f20565b93508360208202850161270585612e87565b8060005b858110156127415784840389528151612722858261263a565b945061272d83612ef5565b925060208a01995050600181019050612709565b50829750879550505050505092915050565b600061275e82612ed2565b6127688185612f31565b93508360208202850161277a85612e97565b8060005b858110156127b65784840389528151612797858261264e565b94506127a283612f02565b925060208a0199505060018101905061277e565b50829750879550505050505092915050565b60006127d382612edd565b6127dd8185612f42565b93506127ed818560208601612fee565b6127f68161315a565b840191505092915050565b600061280c82612edd565b6128168185612f53565b9350612826818560208601612fee565b61282f8161315a565b840191505092915050565b600061284582612edd565b61284f8185612f64565b935061285f818560208601612fee565b80840191505092915050565b6000815461287881613021565b6128828186612f64565b9450600182166000811461289d57600181146128ae576128e1565b60ff198316865281860193506128e1565b6128b785612ea7565b60005b838110156128d9578154818901526001820191506020810190506128ba565b838801955050505b50505092915050565b60006128f7603783612f53565b91506129028261316b565b604082019050919050565b600061291a601483612f53565b9150612925826131ba565b602082019050919050565b600061293d602183612f53565b9150612948826131e3565b604082019050919050565b6000612960601383612f53565b915061296b82613232565b602082019050919050565b6000612983603a83612f53565b915061298e8261325b565b604082019050919050565b60006129a6602a83612f53565b91506129b1826132aa565b604082019050919050565b60006129c9602583612f53565b91506129d4826132f9565b604082019050919050565b600060c08301600083015184820360008601526129fc8282612a84565b91505060208301518482036020860152612a1682826127c8565b91505060408301518482036040860152612a3082826127c8565b9150506060830151612a456060860182612b9a565b5060808301518482036080860152612a5d82826126de565b91505060a083015184820360a0860152612a778282612680565b9150508091505092915050565b600060a083016000830151612a9c6000860182612662565b5060208301518482036020860152612ab482826127c8565b91505060408301518482036040860152612ace82826127c8565b91505060608301518482036060860152612ae882826127c8565b91505060808301518482036080860152612b0282826127c8565b9150508091505092915050565b600060a083016000830151612b276000860182612662565b5060208301518482036020860152612b3f82826127c8565b91505060408301518482036040860152612b5982826127c8565b91505060608301518482036060860152612b7382826127c8565b91505060808301518482036080860152612b8d82826127c8565b9150508091505092915050565b612ba381612fd5565b82525050565b612bb281612fd5565b82525050565b6000612bc4828461283a565b915081905092915050565b6000612bdb828461286b565b915081905092915050565b600060a082019050612bfb6000830188612671565b8181036020830152612c0d8187612801565b90508181036040830152612c218186612801565b90508181036060830152612c358185612801565b90508181036080830152612c498184612801565b90509695505050505050565b60006020820190508181036000830152612c6f8184612753565b905092915050565b60006020820190508181036000830152612c918184612801565b905092915050565b60006020820190508181036000830152612cb2816128ea565b9050919050565b60006020820190508181036000830152612cd28161290d565b9050919050565b60006020820190508181036000830152612cf281612930565b9050919050565b60006020820190508181036000830152612d1281612953565b9050919050565b60006020820190508181036000830152612d3281612976565b9050919050565b60006020820190508181036000830152612d5281612999565b9050919050565b60006020820190508181036000830152612d72816129bc565b9050919050565b60006020820190508181036000830152612d938184612b0f565b905092915050565b60006080820190508181036000830152612db58187612b0f565b90508181036020830152612dc98186612801565b90508181036040830152612ddd8185612801565b9050612dec6060830184612ba9565b95945050505050565b6000612dff612e10565b9050612e0b8282613053565b919050565b6000604051905090565b600067ffffffffffffffff821115612e3557612e3461312b565b5b602082029050602081019050919050565b600067ffffffffffffffff821115612e6157612e6061312b565b5b612e6a8261315a565b9050602081019050919050565b6000819050602082019050919050565b6000819050602082019050919050565b6000819050602082019050919050565b60008190508160005260206000209050919050565b600081519050919050565b600081519050919050565b600081519050919050565b600081519050919050565b6000602082019050919050565b6000602082019050919050565b6000602082019050919050565b600082825260208201905092915050565b600082825260208201905092915050565b600082825260208201905092915050565b600082825260208201905092915050565b600082825260208201905092915050565b600081905092915050565b6000612f7a82612fd5565b9150612f8583612fd5565b925082821015612f9857612f976130cd565b5b828203905092915050565b6000612fae82612fb5565b9050919050565b600073ffffffffffffffffffffffffffffffffffffffff82169050919050565b6000819050919050565b82818337600083830152505050565b60005b8381101561300c578082015181840152602081019050612ff1565b8381111561301b576000848401525b50505050565b6000600282049050600182168061303957607f821691505b6020821081141561304d5761304c6130fc565b5b50919050565b61305c8261315a565b810181811067ffffffffffffffff8211171561307b5761307a61312b565b5b80604052505050565b600061308f82612fd5565b91507fffffffffffffffffffffffffffffffffffffffffffffffffffffffffffffffff8214156130c2576130c16130cd565b5b600182019050919050565b7f4e487b7100000000000000000000000000000000000000000000000000000000600052601160045260246000fd5b7f4e487b7100000000000000000000000000000000000000000000000000000000600052602260045260246000fd5b7f4e487b7100000000000000000000000000000000000000000000000000000000600052604160045260246000fd5b6000601f19601f8301169050919050565b7f447765657420697320746f6f206c6f6e672e20506c65617365206b656570206960008201527f7420756e6465722031343020636861726163746572732e000000000000000000602082015250565b7f447765657420646f6573206e6f74206578697374000000000000000000000000600082015250565b7f596f75206d757374207369676e20757020746f20706f7374206120647765657460008201527f2e00000000000000000000000000000000000000000000000000000000000000602082015250565b7f5573657220616c72656164792065786973747300000000000000000000000000600082015250565b7f49276d207375726520796f75722074686f756768747320617265206e6f74206560008201527f6d7074792e20447765657420736f6d657468696e67206f75742e000000000000602082015250565b7f557365726e616d652069732074616b656e2c20706c656173652074727920616e60008201527f6f74686572206f6e652e00000000000000000000000000000000000000000000602082015250565b7f596f75206d757374206265207369676e656420757020746f206c696b6520612060008201527f6477656574000000000000000000000000000000000000000000000000000000602082015250565b61335181612fa3565b811461335c57600080fd5b50565b61336881612fd5565b811461337357600080fd5b5056fea264697066735822122029e0d3b913b3fa7b394ef7f1cae32d73eba572f06a09caf1dc88038fc1094ff864736f6c63430008040033",
  "linkReferences": {},
  "deployedLinkReferences": {}
}